:020000040800F2
:1000000018230020010100089F1C0008FD150008AE
:100010009B1C0008530E0008333700080000000046
:100020000000000000000000000000008927000818
:10003000E30E000800000000792500089D28000854
:100040001B0100081B0100081B0100081B01000820
:100050001B0100081B0100081B0100081B01000810
:100060001B0100081B0100081B0100081B01000800
:100070001B0100081B0100081B0100081B010008F0
:100080001B0100081B0100081B0100081B010008E0
:100090001B0100081B0100081B010008590F000884
:1000A0001B0100081B0100081B0100081B010008C0
:1000B000E92B0008012C00086D2C00081B0100082A
:1000C0001B0100081B0100081B0100081B010008A0
:1000D0001B0100081B010008B53300081B010008C4
:1000E000E50E00081B0100081B010008DFF80CD01A
:1000F00000F0CCFC00480047FB5A00081823002001
:100100000648804706480047FEE7FEE7FEE7FEE7B1
:10011000FEE7FEE7FEE7FEE7FEE7FEE7A1280008B0
:10012000ED0000082DE9F0410024061B254671F181
:10013000000605DA01240027D0EB070067EB010178
:10014000161E73F1000605DA0027D2EB070201251F
:1001500067EB030300F08CFB86460E4617469C4671
:10016000AC4204D00025D0EB050E65EB010624B1AE
:100170000020D2EB000760EB030C704631463A4694
:100180006346BDE8F08140EA01039B0703D009E024
:1001900008C9121F08C0042AFAD203E011F8013B73
:1001A00000F8013B521EF9D27047D2B201E000F8CC
:1001B000012B491EFBD270470022F6E710B513460B
:1001C0000A4604461946FFF7F0FF204610BD421CC0
:1001D00010F8011B0029FBD1801A704730B5044686
:1001E0000020034600E05B1C934203D2E05CCD5C40
:1001F000401BF8D030BDF0B480EA0102D40F4200B9
:10020000B2EB410F02D20246084611464A0042D0E4
:10021000C30DDDB2C1F3C752AD1A202D35DAC1F3DB
:10022000160141F4000204B15242C5F1200602FA5F
:1002300006F12A411044B3EBD05F23D0C4B1012DA5
:10024000A0EBC35009DCF0BC4FF0004202EAC352FD
:10025000DBB200F5000000F076BB400000F18070DA
:1002600000EBC350A0F1807040EAD170490009E072
:10027000490841EAC071A0EBC35000F500004008F6
:1002800000EBC350F0BC00F055BB6142012202EB11
:100290004101001BF6E7F0BC704781F00041AAE77E
:1002A00080F00040A7E780EA010210B502F00043A9
:1002B000400022D04A001FD0010E01EB1261C0F3B2
:1002C0005600C2F3560240F4000042F40002A0FBC4
:1002D000022000047F39140400D0401C50EA124070
:1002E00001D44000491EC2B20C0604EBD010401CE1
:1002F0004008802A02D003E0002010BD20F0010059
:10030000002900DA0020184310BD30B480EA010251
:1003100002F0004530F0004221F0004013D090B1CF
:10032000C30DD40DC2F31601C0F31600E41A41F454
:10033000000140F400027D34914201D3641C00E0CE
:100340004900002C02DA30BC002070474FF4000056
:100350000023914201D3891A034340084FEA410127
:10036000F7D151B1914202D14FF0004105E002D2E4
:100370004FF0010101E06FF0010103EBC45028448C
:1003800030BC00F0D7BA2DE9FE4F804681EA030069
:10039000C00F0C46009021F0004123F00045B8EB5F
:1003A0000200A94105D24046214690461C460B4614
:1003B000024623F00040104347D0270DC7F30A0040
:1003C000C3F30A510290401A019040286BDAC3F33C
:1003D000130040F4801B0098924620B10023D2EB1A
:1003E000030A63EB0B0B01985946C0F140025046DB
:1003F00000F06FFA06460D4650465946019A00F045
:1004000087FA10EB08006141002487EA115284EA60
:10041000E7731A4340D0009A62B3019A012A4FEA67
:10042000075215DC001B61EB02014FF0004202EAAB
:100430000752CDE90042001C41F5801132462B469F
:1004400000F0BEFA03B0BDE8F08F40462146F9E760
:10045000001B61EB0201001C41F5801300185B4199
:100460002018A2F5001747EB030140EAD570B61932
:100470006D4111E06D084FEA360645EAC0754FEA56
:100480000752001B61EB0201001C41F58011490875
:100490004FEA30000019514132462B4603B0BDE807
:1004A000F04F00F07EBA0098012240000023D0EB0C
:1004B000020263EBE073009821464FEAE074B8EB68
:1004C000000061EB0401E9E783F000435BE781F0A2
:1004D000004158E72DE9FE4F81EA030404F000448F
:1004E00021F0004100944FF0000B23F0004350EA4C
:1004F00001045ED052EA03045BD0C3F30A54C1F393
:100500000A552C44A4F2F3340194A0FB0254C1F325
:10051000130141F48011C3F3130343F4801301FB6F
:10052000024400FB034E840A970A44EA815447EAD6
:100530008357A4FB076802958D0A05FB07854FEAE0
:10054000932C04FB0C542705029D4FEA065847EAFA
:100550001637B5EB08056EEB070C870E920E47EACF
:10056000811742EA8312A7FB0201B6EB0B0164EB91
:1005700000042B0D43EA0C335E1844EB1C50DA46A2
:100580005146E7FB0201C5F313044FEA0B3343EA7C
:1005900014534FEA0432019C43EA0603A4F10C040D
:1005A0000294009CCDE900B400F00AFA03B0BDE863
:1005B000F08F00200146F9E72DE9F04D81EA0304B0
:1005C00004F0004B21F0004514464FF0000A23F0E0
:1005D000004150EA050220D054EA01021DD0C5F3C3
:1005E0000A570246C5F31303C1F31300C1F30A56B9
:1005F00040F4801543F48013A7EB0608101BD64681
:1006000008F2FD3873EB050002D308F1010801E0A0
:1006100092185B41B8F1000F03DA00200146BDE8F3
:10062000F08D00204FF48011064684460EE0171B23
:1006300073EB050705D3121B63EB050306434CEA76
:10064000010C49084FEA300092185B4150EA01075B
:10065000EDD152EA030012D082EA040083EA0501D8
:10066000084305D0101BAB4106D20122002306E04F
:1006700000224FF0004302E06FF0010253101AEB2A
:1006800006004CEB085110EB0A0041EB0B01BDE8F2
:10069000F04D00F086B9C10F80EAE0700844CA0747
:1006A0009623002100F04FB996230022114600F056
:1006B0004AB90EB5C10F80EAE0700844CA070021AC
:1006C00040F233438DE80E000A460B4600F078F9FD
:1006D00003B000BD0EB540F2334102910021CDE9D7
:1006E00000110A460B4600F06BF903B000BD00F0A4
:1006F000004220F00040C10DC0F3160040F400009D
:100700007F2901DA00207047962903DCC1F19601A8
:10071000C84001E096398840002AF4D04042704732
:1007200020F00040C10DC0F3160040F400007F2906
:1007300001DA00207047962903DCC1F19601C84018
:10074000704796398840704770B5C1F30A5201F07E
:1007500000450024C1F3130140F2FF3341F480113E
:100760009A4201DA002070BD40F233439A42A2F26D
:10077000334203DC524200F0BBF800E090402C43CF
:10078000F1D0404270BDC1F30A5210B5C1F313015C
:1007900040F2FF3341F480119A4201DA002010BD8B
:1007A00040F233439A42A2F2334203DC524200F059
:1007B0009FF810BD904010BD00F0004230F00040A6
:1007C0000AD0C10D01F56071C0F3160042EA015173
:1007D000C2084007114370470020014670470000DF
:1007E00030B5041E71F1000404DB4FF000444042B8
:1007F00064EB0101141E73F1000405DB1C464FF08D
:100800000043524263EB04038B4208BF824230BD77
:1008100001F0004330B421F0004150EA010206D05B
:100820000A0DA2F56072C1F31301002A02DC30BC8C
:1008300000207047440F44EAC104C100E01830BCF6
:1008400000EBC25000F076B8002801DBC0F1004098
:10085000002901DBC1F1004181427047002801DB22
:10086000C0F10040002901DBC1F10041884270471E
:100870002DE9F05F0546002092469B4688460646D5
:10088000814640241BE0284641464746224600F068
:100890002FF853465A46C01A914110D311461846B4
:1008A000224600F016F82D1A67EB01084F46224643
:1008B0000120002100F00DF817EB00094E41201E29
:1008C000A4F10104DFDC484631462A464346BDE830
:1008D000F09F202A04DB203A00FA02F10020704742
:1008E0009140C2F1200320FA03F31943904070476E
:1008F000202A04DB203A21FA02F00021704721FA75
:1009000002F3D040C2F120029140084319467047DB
:10091000202A06DBCB17203A41FA02F043EAE073C3
:1009200006E041FA02F3D040C2F1200291400843B0
:10093000194670470029A8BF7047401C490008BFEE
:1009400020F00100704710B4B0FA80FC00FA0CF0FF
:1009500050EA010404BF10BC704749B1CCF1200437
:1009600021FA04F411FA0CF118BF012121430843C4
:10097000A3EB0C01CB1D4FEA00614FEA102042BFF0
:10098000002010BC704700EBC35010440029A4BFE6
:1009900010BC7047401C490008BF20F0010010BC8B
:1009A000704710B5141E73F1000408DA401C41F1C1
:1009B000000192185B411A4301D120F0010010BDE3
:1009C0002DE9F04D92469B4611B1B1FA81F202E059
:1009D000B0FA80F220329046FFF77BFF04460F46C4
:1009E00040EA0A0041EA0B0153465A46084313D035
:1009F000114653EA010019D0C8F140025046FFF7F2
:100A000077FF05460E46504659464246FFF761FFBE
:100A1000084305D0012004E020463946BDE8F08DAA
:100A20000020054346EAE0762C4337430A986305E5
:100A3000E40AA0EB08000022FD0A44EA47540A3009
:100A400002D500200146E9E7010510196941DDE9F9
:100A5000084500196941BDE8F04DA2E770B521F0E5
:100A6000004303430CD0C1F30A550024D5EB040521
:100A700064EB0403D617AD1AB34102DB0020014634
:100A800070BD201841EB025170BD0000064C074DAF
:100A900006E0E06840F0010394E80700984710344E
:100AA000AC42F6D3FFF726FBB0820008D0820008E4
:100AB0002DE9F04D00231A461B1A8A4103DB002062
:100AC0000146BDE8F08DC1F30A52C1F3130141F4B0
:100AD00080154FF0000BD10702D100186D41521E56
:100AE0000027044640F2FF11384601EB620A3E46F9
:100AF0008046024600204FF48011FFF7F9FEC2192C
:100B00007141BB1846EB0100B4EB030C75EB000C14
:100B100004D3E41A65EB000517460E46241908F1C4
:100B200001006D4180463428E3DDF91946EB0600EB
:100B3000091BA84103D24FF0FF32134601E0002207
:100B400013461BEB070046EB0A51BDE8F04DFFF7DB
:100B500028BF70B58C1810F8015B15F0070301D1A0
:100B600010F8013B2A1106D110F8012B03E010F810
:100B7000016B01F8016B5B1EF9D12B0705D4002333
:100B8000521E0DD401F8013BFAE710F8013BCB1AD5
:100B9000921C03E013F8015B01F8015B521EF9D5CA
:100BA000A142D8D3002070BD00B585B00121480214
:100BB00001F020FD4FF4404001F0E0FC1B4800F044
:100BC0004DF80021194800F03EF8002000908DF803
:100BD00004008DF805004FF460200290002003907F
:100BE00001208DF810006946104800F099F80023A4
:100BF000012204210D4800F0BBF801210B4800F050
:100C000017F80A4800F010F900BF084800F07DF816
:100C10000028FAD1054800F017F900BF034800F09A
:100C20005DF80028FAD105B000BD000000240140A5
:100C300021B1826842F00102826003E0826822F002
:100C400001028260704721B1826842F48072826042
:100C500003E0826822F480728260704710B5044617
:100C60001248844208D10121401501F0D3FC002133
:100C7000601501F0CFFC17E00D48844208D1012136
:100C8000001501F0C7FC0021201501F0C3FC0BE0AA
:100C90000848844208D10121C80301F0BBFC0021AF
:100CA0004FF4004001F0B6FC10BD000000240140EC
:100CB00000280140003C014008B50121042001F05A
:100CC00099FC1020ADF8000000208DF80300694663
:100CD000014800F0BBFB08BD0008014001460020B0
:100CE0008A6802F004020AB1012000E00020704787
:100CF0000146C86C80B270470246002013680B4062
:100D00000BB1012000E000207047014600208A68F6
:100D100002F008020AB1012000E000207047000044
:100D200030B502460020002350680F4C20400D795A
:100D30000C6844EA05242043506090680B4C204026
:100D4000D1E902542C434D7944EA45042043906094
:100D5000D06A20F470000C7C641EE4B2234340EAA5
:100D60000350D06230BD0000FFFEF0FFFDF7F1FF41
:100D7000F0B504460D4600200021092D11DDE06884
:100D8000A5F10A0606EB4607072606FA07F188438F
:100D9000A5F10A0606EB460603FA06F10843E060F1
:100DA0000CE0206905EB4507072606FA07F18843A2
:100DB00005EB450603FA06F108432061072A0FDA1E
:100DC000606B561E06EB86071F2606FA07F188435E
:100DD000561E06EB860605FA06F10843606322E01C
:100DE0000D2A0FDA206BD61F06EB86071F2606FAA0
:100DF00007F18843D61F06EB860605FA06F108437D
:100E0000206310E0E06AA2F10D0606EB86071F26BC
:100E100006FA07F18843A2F10D0606EB860605FAED
:100E200006F10843E062F0BD816841F0080181608D
:100E3000704721B1826842F4A002826003E08268B8
:100E400022F4A00282607047816841F00401816051
:100E5000704700BFFEE7000000F0805111B1034968
:100E6000086001E002494860704700000404024045
:100E70000000024021B1026842F00102026004E079
:100E800002684FF6FE731A400260704701464868D8
:100E900080B270471AB103680B43036002E0036835
:100EA0008B430360704710B50022026847F6F07369
:100EB0009A430C6A8B6823430C6923434C69234390
:100EC0008C692343CC6923434C6A23438C6A2343B4
:100ED0001A430260CB6843600B6883604B68C36051
:100EE00010BD70472DE9F0414FF4005000F096F925
:100EF00030B34FF4005000F08BF91248006801281D
:100F000003D10121104801F0D1FE0E480068B8B9A4
:100F100000210D4801F0CAFE0B4801F0F8FF8046A1
:100F2000FFF7D8FB0646094A094BFFF745FB044685
:100F3000FFF76EFC074908600021034802F019F929
:100F4000BDE8F081348121420004004085EB51B8B6
:100F50001E851740A000002070B5202000F05EF92B
:100F600000287DD08A480068002879D1202000F030
:100F70004FF9884A8849894804F056FE884A8949C9
:100F8000894800F0E7FB894A89498A4800F0BAFBA2
:100F9000022001F0B9FB404287490860042001F0BB
:100FA000B3FB8649086086480068012807D14FF0E6
:100FB0007E5184480068FFF71EF982490860824923
:100FC00080480068FFF740FC06D100207D4908609A
:100FD0007B4908607D4908607D48007828B97D48D4
:100FE000007810B900207C49086079480078012811
:100FF00004D179480068401E774908607548007838
:10100000012804D174480068401C73490860704886
:101010000078012803D06F480078012802D1002011
:101020006A4908606C480068502801DD502009E0DA
:101030006948006810F1500F02DA6FF04F0001E0CC
:1010400065480068644908606448007828B96448C5
:10105000007810B90020634908606048007800E01B
:1010600095E0012804D15F480068401C5D49086094
:101070005B480078012804D15A480068401E59494D
:10108000086058480068322801DD322009E05548E0
:10109000006810F1320F02DA6FF0310001E05148C0
:1010A0000068504908604D48007830B94C480078D5
:1010B00018B94D484D4908600AE0484800780128B1
:1010C00003D047480078012802D100204749086032
:1010D000474931480068FFF7B7FB51D245492E48D0
:1010E0000068FFF7BBFB4BD235480068F0BB3348C4
:1010F0000268314801683848006801F09FF93E49AC
:1011000008602948B0F90000FFF7C5FA05463A48DB
:101110000068FFF7C0FA0646384801683046FFF716
:101120006AF804462A461C480168204601F05CF92A
:10113000334908601A48B0F90000FFF7ACFA0446DA
:1011400028480168204601F0F5F92E4908602C482E
:101150000068096808442C49086029480068294942
:101160000968401A29490860274800E008E000F0B3
:1011700047FA264801682448006800F067FA06E04C
:101180000021084600F062FA01200D49086070BD98
:10119000140121421800002014000020100000203B
:1011A000200000201E0000201C000020260000203F
:1011B000240000202200002064000020680000209D
:1011C000600000202C0000200000FA436C0000208A
:1011D0008000002081000020940000208200002078
:1011E00083000020900000206666E63F4400002057
:1011F00000004842000048C24C00002028000020A7
:10120000480000205000002054000020580000201A
:1012100001490860704700001404014001460020A5
:101220000022074B1B6803EA0102054B14331B68BD
:101230000B4013B10AB1012000E00020704700000C
:1012400000040140002123498279002A3AD00A464D
:10125000126803689A430B461A600A1D12680368F5
:101260009A430B1D1A60027911440A6803681A43F5
:101270000A60184A0832126803689A43154B08330B
:101280001A601A1D126803689A43124B0C331A60D5
:101290004279102A0ED11A1F126803681A430D4BA7
:1012A00008331A601A1D126803681A43094B0C337D
:1012B0001A600DE00749427911440A6803681A432D
:1012C0000A6005E0027911440A6803689A430A60DB
:1012D000704700000004014000B587B001210420E0
:1012E00001F088F90121084601F064F904208DF825
:1012F0001B000320ADF8180006A91C4800F0A6F852
:1013000003A801F0B7FF0020ADF81200ADF80E0001
:101310004FF6FF70ADF810000020ADF80C0003A9E7
:101320004FF0804001F054FF00231A4603214FF094
:10133000804001F0CBFD684601F054FE0A20ADF874
:1013400008006946400701F0F7FD012211469007A9
:1013500001F051FE00214FF0804001F00AFF012111
:10136000880701F0A3FC07B000BD000000080140A1
:1013700000B587B00121082001F03CF901210420CB
:1013800001F018F904208DF81B00C020ADF81800FA
:1013900006A91C4800F05AF803A801F06BFF0020D2
:1013A000ADF81200ADF80E004FF6FF70ADF810006A
:1013B0000020ADF80C0003A9134801F009FF002339
:1013C0001A460321104801F081FD684601F00AFE2B
:1013D0000A20ADF8080069460B4801F0ADFD012177
:1013E000094801F05DFC01221146074801F003FEA7
:1013F0000021054801F0BDFE0121034801F056FC23
:1014000007B000BD000C01400008004030B50022CC
:101410008B071C0F0F2303FA04F20B4B8C1053F8AD
:1014200024309343084C8D1044F8253023468C100B
:1014300053F824308C07240F00FA04F42343024CA1
:101440008D1044F8253030BD080001402DE9F041F1
:10145000024600250026002000230024002791F8E2
:1014600003C00CF00F0591F803C00CF0100CBCF198
:10147000000F03D091F802C04CEA050591F800C0B6
:10148000BCF1000F31D0146800202BE04FF0010CAC
:101490000CFA00F3B1F800C00CEA03069E4220D11A
:1014A00083004FF00F0C0CFA03F7BC4305FA03FC62
:1014B0004CEA040491F803C0BCF1280F06D14FF0A8
:1014C000010C0CFA00FCC2F814C00AE091F803C049
:1014D000BCF1480F05D14FF0010C0CFA00FCC2F82A
:1014E00010C0401C0828D1D31460B1F800C0BCF172
:1014F000FF0F34DD546800202EE000F1080C4FF09F
:10150000010808FA0CF3B1F800C00CEA03069E4289
:1015100021D183004FF00F0C0CFA03F7BC4305FAFE
:1015200003FC4CEA040491F803C0BCF1280F05D178
:1015300000F1080C08FA0CF8C2F8148091F803C006
:10154000BCF1480F07D100F1080C4FF0010808FA70
:101550000CF8C2F81080401C0828CED35460BDE8B7
:10156000F0810000F0B50A46002300240021002588
:1015700000F00046B6F1004F02D11D4EF16901E0C6
:101580001B4E7168C0F3034583B200F44016B6F5F4
:10159000401F08D121F07061154E766826F0706604
:1015A000134F7E6012E000F48016B6F5801F06D15E
:1015B000032606FA05F4A14341F0706106E0460DEA
:1015C000360103FA06F6B14341F0706122B1460DCF
:1015D000360103FA06F6314300F00046B6F1004F3B
:1015E00002D1034EF16101E0014E7160F0BD0000D7
:1015F00000000140416170470161704700BFFEE794
:10160000104B02681B689A4202DD0E4A12680260A3
:101610000D4B02681B689A4202DA0B4A126802609C
:10162000084B0A681B689A4202DD064A12680A6083
:10163000054B0A681B689A4202DA034A12680A607C
:1016400070470000E0000020E4000020002807DBD5
:101650000122134B1A600022124BC3F8B02107E09D
:1016600000220F4B1A6001220E4BC3F8B0214042FA
:10167000002907DB00220C4B1A6001220B4BC3F838
:10168000902107E00122084B1A600022074BC3F8A3
:1016900090214942064B18801B1D1980704700009D
:1016A000AC012142000021428C8121420080214274
:1016B000342C01400EB50121052000F09BFF48208D
:1016C0008DF803002020ADF8000003208DF8020003
:1016D00069460B48FFF7BAFE05210020FFF796FE8A
:1016E0002020019001208DF80A0000208DF80800CC
:1016F0000C208DF8090001A8FFF7A4FD0EBD000025
:10170000000801402DE9FC4104460D4616466B4693
:1017100006223B21682000F0EAF90746BFB99DF890
:1017200001009DF8001040EA012000B220809DF8E1
:1017300003009DF8021040EA012000B228809DF8C5
:1017400005009DF8041040EA012000B230803846C0
:10175000BDE8FC812DE9FC4104460D4616466B466A
:1017600006224321682000F0C2F90746BFB99DF860
:1017700001009DF8001040EA012000B220809DF891
:1017800003009DF8021040EA012000B228809DF875
:1017900005009DF8041040EA012000B23080384670
:1017A000BDE8FC8110B500200E4908600E480068B5
:1017B00020F0F0000C4908600846006840F0300056
:1017C000086000200949C1F8840100F011F80120E7
:1017D0000449086000F00CF800200449C1F88001B9
:1017E00010BD000080812142000C01400080214298
:1017F00010B5022002F0BCFE10BD000008B50121AA
:10180000082000F0F7FE0320ADF8000014208DF84A
:10181000030003208DF8020069460248FFF716FE18
:1018200008BD0000000C014010B500200E49086002
:101830000E48006820F0F0000C4908600846006877
:1018400040F03000086001200949C1F88401FFF729
:10185000CFFF012004490860FFF7CAFF00200449B8
:10186000C1F8800110BD000080812142000C0140C0
:101870000080214270B5054600241648006820F01B
:10188000F000144908600846006840F080000860D5
:10189000002614E0002010490860FFF7A9FF01208E
:1018A0000E49C1F880016006040E0B487C380068C0
:1018B00008B1601CC4B2FFF79BFF701CC6B2082EB3
:1018C000E8DB15B9FFF7B0FF01E0FFF76BFF20463B
:1018D00070BD0000000C0140808121420080214247
:1018E00070B504461248006820F0F0001049086006
:1018F0000846006840F03000086000200D4908608C
:10190000002512E0E0090B49091D08606006040E7D
:1019100001200949C1F88001FFF76AFF002005494D
:101920000860FFF765FF681CC5B2082DEADB70BDD3
:10193000000C0140808121420080214210B50E48F8
:10194000006820F0F0000C4908600846006840F08C
:10195000300008600120094908600949C1F8800188
:10196000FFF746FF002005490860FFF741FF002010
:101970000349C1F8800110BD000C0140848121425F
:101980000080214210B50E48006820F0F0000C499C
:1019900008600846006840F03000086000200949EF
:1019A00008600949C1F88401FFF722FF01200549B9
:1019B00008600549C1F88401FFF71AFF10BD000057
:1019C000000C0140808121420080214210B500249A
:1019D0001448006820F0F0001249086008460068CA
:1019E00040F08000086001200F490860FFF700FF09
:1019F00001200E49C1F88001FFF7FAFE07E0601CE4
:101A0000C4B2FA2C03DDFFF7BDFF012010BD06486C
:101A1000803800680028F2D10349091F086000BF20
:101A2000F4E70000000C0140848121420080214243
:101A300010B5FFF7E3FE80216B2000F0DCF8642096
:101A400002F070FD00216B2000F0D5F8032000F0BB
:101A500090F8002000F085F8C82000F0AFF80021D1
:101A6000382000F0C8F800216A2000F0C4F80021F6
:101A7000232000F0C0F88021372000F0BCF875204A
:101A800000F018F80A4908700846007868280BD159
:101A900001216B2000F0AFF800216C2000F0ABF8C2
:101AA000642000F08BF801E0012010BD0020FCE76D
:101AB000E800002070B50446FFF740FFD020FFF794
:101AC0000FFFFFF783FF2046FFF70AFFFFF77EFFB8
:101AD000FFF734FFD120FFF703FFFFF777FF002068
:101AE000FFF7C8FE0546FFF74DFF284670BD2DE9FC
:101AF000F04106460F4614461D46FFF71FFF002122
:101B000041EA4601C8B2FFF7EBFEFFF75FFF20B1E5
:101B1000FFF738FF0120BDE8F0813846FFF7E0FE0F
:101B2000FFF754FFFFF70AFF012101EB4601C8B29E
:101B3000FFF7D6FEFFF74AFF0DE0012C04D100208D
:101B4000FFF798FE287003E00120FFF793FE28704E
:101B5000601EC4B26D1C002CEFD1FFF713FF0020F4
:101B6000D9E710B50446E006010E1C2000F043F84A
:101B700010BD10B50446E006010E1B2000F03BF836
:101B800010BD70B504460025BC2C01DB012510E01A
:101B9000622C01DB02250CE02A2C01DB032508E086
:101BA000142C01DB042504E00A2C01DB052500E0F0
:101BB000062529461A2000F01EF870BD70B50446AF
:101BC000B4F57A7F01DD4FF47A74042C00DA042432
:101BD0004FF47A7090FBF4F0401EC5B229461920EC
:101BE00000F009F80546264604EBD671C1F34F0014
:101BF000FFF7C7FF70BD70B505460C46FFF79EFEA8
:101C0000D020FFF76DFEFFF7E1FE18B1FFF7BAFE37
:101C1000012070BD2846FFF763FEFFF7D7FE204680
:101C2000FFF75EFEFFF7D2FE18B1FFF7ABFE012013
:101C3000EFE7FFF7A7FE0020EBE72DE9F0410546AF
:101C40000E4617469846FFF779FE002141EA450106
:101C5000C8B2FFF745FEFFF7B9FE20B1FFF792FECD
:101C60000120BDE8F0813046FFF73AFEFFF7AEFEF7
:101C700000240CE018F80400FFF732FEFFF7A6FE80
:101C800018B1FFF77FFE0120EBE7601CC4B2BC4235
:101C9000F0DBFFF777FE0020E3E700BFFEE77047C9
:101CA00008B54FF4A06000F073F826208DF800000E
:101CB00001208DF8030002208DF8010000208DF82E
:101CC0000200684600F02CF817208DF80000012073
:101CD0008DF8030000208DF801008DF802006846A1
:101CE00000F01EF828208DF8000001208DF8030078
:101CF0008DF8010000208DF80200684600F010F811
:101D00001D208DF8000001208DF8030002208DF8C1
:101D1000010000208DF80200684600F001F808BDBF
:101D200070B5002100230F22C47804B3154C246839
:101D300004F4E064C4F5E064210AC1F10403CA407C
:101D4000447804FA03F184781440214309010E4CCD
:101D50000678A155047804F01F050124AC400578ED
:101D60006D11AD0005F1E025C5F8004109E00478EA
:101D700004F01F050124AC40044D0678761145F8A7
:101D8000264070BD0CED00E000E400E080E100E0E2
:101D900002490143024A1160704700000000FA0541
:101DA0000CED00E070B5002418E004F1B000002153
:101DB00000F0B3FA0021084600F0AFFA002110202D
:101DC00000F0ABFA002505E00121002000F0A5FAA3
:101DD000681CC5B2802DF7DB601CC4B2082CE4DBA4
:101DE00070BD2DE9F05F06460F4690461C46DDF8B3
:101DF00028A04FF0000BE11704EB5171C910A4EBC0
:101E0000C10131B92046E11704EB5171C1F3C70597
:101E100006E02046E11704EB5171C910491CCDB210
:101E20003D4615E02946304600F0C2F9B1460BE0C8
:101E300059460BF1010B1AF80100012100F06DFA6F
:101E400009F1010000F0FF09C145F1DB681CC5B2D2
:101E5000A542E7DBBDE8F09F2DE9FF5F86B01446A1
:101E60001D464FF0010A00200390049005904FF0AA
:101E70000109002600BF834600221346204629465A
:101E8000FEF7AEFC09D285F00040CDE900402046C7
:101E90000199FEF759FC064604E020462946FEF764
:101EA00053FC06463046FEF704FC22462B46CDE99D
:101EB0000001FEF70CFB074688460022554B3846CA
:101EC0004146FEF707FBCDE90001FEF75CFC8346C7
:101ED00007E009EB89004FEA40090AF1010000F030
:101EE000FF0A0A2096FBF0F090FBF9F00028F0D1F1
:101EF00042F2107096FBF0F00A2190FBF1F201FB28
:101F00001200C0B28DF80C004FF47A7096FBF0F01E
:101F100090FBF1F201FB1200C0B28DF80D006420BD
:101F200096FBF0F090FBF1F201FB1200C0B28DF8CD
:101F30000E000A2096FBF0F090FBF1F201FB12007C
:101F4000C0B28DF80F000A2096FBF0F100FB116083
:101F5000C0B28DF810002E208DF811004FF47A7069
:101F6000BBFBF0F00A21B0FBF1F201FB12008DF88F
:101F700012006420BBFBF0F0B0FBF1F201FB120099
:101F80008DF813000A20BBFBF0F0B0FBF1F201FB6F
:101F900012008DF814000A20BBFBF0F100FB11B019
:101FA0008DF8150000211498801D03AA115489464C
:101FB00008E003A810F80900303003A901F809006F
:101FC00009F10109B9F10A0FF3DB0022134620469B
:101FD0002946FEF705FC08D20AF1010000F0FF0ACD
:101FE0002D20CAF1050103AA50542E208DF81100AE
:101FF00000211498801D03AA1154CAF1050003A9F9
:1020000042181023DDE9060100F06CF90AB0BDE8C2
:10201000F09F00000088C34010B54FF4807109485C
:10202000FFF7EAFA4FF400710648FFF7E5FA4FF4BC
:1020300000710448FFF7DEFA4FF480710148FFF7A2
:10204000D9FA10BD000C014010B54FF4807107485B
:10205000FFF7D2FA4FF400710448FFF7CBFA4FF4C0
:1020600000710248FFF7C8FA10BD0000000C0140E3
:1020700010B54FF480710448FFF7BEFA4FF4807139
:102080000148FFF7B7FA10BD000C014008B5012167
:10209000092000F0AFFA01214348FFF763FA4FF43B
:1020A0004070ADF8000010208DF8030003208DF87B
:1020B000020069463D48FFF7C9F94FF440713B48BB
:1020C000FFF79AFA4FF4487002F02CFA0021AE2084
:1020D00000F023F90021084600F01FF9002110202C
:1020E00000F01BF90021402000F017F90021B0207A
:1020F00000F013F90021812000F00FF90021FF20EA
:1021000000F00BF90021A12000F007F90021A62022
:1021100000F003F90021A82000F0FFF800213F2083
:1021200000F0FBF80021C82000F0F7F80021D320D0
:1021300000F0F3F80021084600F0EFF80021D52068
:1021400000F0EBF80021802000F0E7F80021D82013
:1021500000F0E3F80021052000F0DFF80021D9208D
:1021600000F0DBF80021F12000F0D7F80021DA20A0
:1021700000F0D3F80021122000F0CFF80021DB207E
:1021800000F0CBF80021302000F0C7F800218D20AE
:1021900000F0C3F80021142000F0BFF80021AF20A8
:1021A00000F0BBF808BD000000023000000C014048
:1021B00070B504460D4605F1B000002100F0ADF801
:1021C000102141EA1410002100F0A7F804F00F00DC
:1021D000002100F0A2F870BD2DE9F04180460E46C6
:1021E0001546002731464046FFF7E2FF00240AE08B
:1021F000124A02EB8511085D012100F08EF8781C6F
:10220000C7B2601CC4B2102CF2DB701CC1B24046D5
:10221000FFF7CEFF00240CE06900491C074A02EBDF
:102220004111085D012100F078F8781CC7B2601CEC
:10223000C4B2102CF0DBBDE8F081000001090020E1
:102240002DE9F04707460E469046994600250024A2
:10225000A8F12000C5B27F2F02DD0027B01CC6B256
:10226000B9F1100F24D131463846FFF7A1FF002401
:1022700008E004EB0511194A505C012100F04DF80B
:10228000601CC4B2082CF4DB701CC1B23846FFF7E6
:102290008FFF002409E004EB051108310F4A505C60
:1022A000012100F03AF8601CC4B2082CF3DB12E004
:1022B00031463846FFF77CFF00240AE005EB450174
:1022C000074A02EB4101085D012100F026F8601C7D
:1022D000C4B2062CF2DBBDE8F08700001103002039
:1022E000E90000202DE9F04105460E4614461F4640
:1022F0000EE022783B4631462846FFF7A1FF05F164
:102300000800C5B2782D02DD0025B01CC6B2641CE1
:1023100020780028EDD1BDE8F08170B504460D4667
:102320001DB1E0B200F04AF802E0E0B200F030F88F
:1023300070BD00002DE9F04105462C464FF4807138
:102340001248FFF757F900261CE0274607F08007E0
:10235000802F04D1B9000D48FFF74EF904E04FF487
:1023600000710A48FFF746F96006040E4FF48071C9
:102370000648FFF741F94FF480710448FFF73AF936
:10238000701CC6B2082EE0DBBDE8F081000C0140F5
:1023900010B50446FFF740FE7820FFF7CBFFFFF7AC
:1023A00067FE0020FFF7C6FFFFF762FE2046FFF73B
:1023B000C1FFFFF75DFEFFF747FE10BD10B50446F5
:1023C000FFF72AFE7820FFF7B5FFFFF751FE402008
:1023D000FFF7B0FFFFF74CFE2046FFF7ABFFFFF71C
:1023E00047FEFFF731FE10BD2DE9F05F05460E46B2
:1023F000144600212046FDF750FF83460D48016832
:102400005846FDF750FF814631462846FDF748FF04
:102410008346094801685846FDF745FF824649460C
:10242000FDF7E9FE8046FEF762F907463846BDE84B
:10243000F09F000034000020300000202DE9F84F0C
:1024400004460D461646324FA819001B3149086054
:1024500031480068FEF71FF983463946FDF723FF30
:1024600081462C480068FEF716F9834639464FF03E
:102470007E50FDF712FF59460090FDF714FF82468B
:102480004946FDF7B8FE8046FEF731F9234908605A
:102490000846006820490860214800681F4909680B
:1024A00008441F4908600846006842F210718842DB
:1024B00001DD084608E01A4800681A49884201DA36
:1024C000084601E01648006815490860084600689B
:1024D000FEF7E1F88346144801685846FDF7E3FE2D
:1024E00081460E480068FEF7D6F883460F4801681B
:1024F0005846FDF7D8FE82464946FDF77CFE8046E9
:10250000FEF7F5F80A49086008460068BDE8F88F4C
:102510003333333F740000207C000020780000201B
:102520006C000020F0D8FFFF3C00002038000020A5
:10253000700000202DE9F04705460C462046FEF7C6
:10254000AAF882460A4801685046FDF7ACFE80466C
:10255000084801682846FDF7A6FE81464146FDF77A
:102560004AFE0746FEF7C3F806463046BDE8F08748
:102570004000002044000020704700000146002079
:10258000034A506820F44040084350607047000000
:102590000010024029B1064A52690243044B5A61B5
:1025A00004E0034A52698243014B5A6170470000BC
:1025B0000010024029B1064AD2690243044BDA6195
:1025C00004E0034AD2698243014BDA61704700009C
:1025D0000010024029B1064A12690243044B1A61F5
:1025E00004E0034A12698243014B1A6170470000FC
:1025F0000010024029B1064A92690243044B9A61D5
:1026000004E0034A92698243014B9A6170470000DB
:102610000010024029B1064AD2680243044BDA6036
:1026200004E0034AD2688243014BDA60704700003D
:102630000010024030B500210022002400232D4D5F
:102640006D6805F00C0121B1042905D0082923D1BA
:1026500005E0294D056022E0274D05601FE0254D6E
:102660006D6805F47012234D6D6805F48034022501
:1026700005EB92421CB9214D554305600BE01D4D01
:102680006D6805F400351DB11C4D5543056002E031
:10269000194D5543056002E0174D056000BF00BFAE
:1026A000144D6D6805F0F0010909154D6B5C056866
:1026B000DD4045600F4D6D6805F4E061090A104D7D
:1026C0006B5C4568DD4085600A4D6D6805F46051BE
:1026D000C90A0B4D6B5C4568DD40C560054D6D68F2
:1026E00005F44041890B074D6B5CC568B5FBF3F5FC
:1026F000056130BD0010024000127A0000093D0063
:102700001C1700202C17002070B50546022D02D0A2
:10271000042D14D10AE04FF0804000F0F8FB04B221
:1027200000214FF0804000F024FD0AE0064800F050
:10273000EEFB04B20021044800F01BFD01E0002480
:1027400000BF00BF204670BD0008004010B500214A
:102750000B48FEF78FFB4FF40010FEF77DFB084897
:10276000FEF794FBC0F57A70064908604FF47A7062
:1027700003496C39086701210148FEF77BFB10BD56
:102780006C00024098000020704710B500F002F87D
:1027900010BD00000CB50020019000903348006887
:1027A00040F480303149086000BF3048006800F4D0
:1027B000003000900198401C0190009818B90198D1
:1027C000B0F5A06FF1D12948006800F4003010B1D5
:1027D0000120009001E0002000900098012843D1E2
:1027E0002348006840F0100021490860084600684E
:1027F00020F0030008600846006840F0020008600E
:102800001A484068194948600846406848600846C8
:10281000406840F4806048600846406820F47C10BE
:1028200048600846406840F4E81048600846006880
:1028300040F08070086000BF0C48006800F0007035
:102840000028F9D00948406820F003000749486093
:102850000846406840F00200486000BF03484068F6
:1028600000F00C000828F9D10CBD00000010024057
:1028700000200240042808D14FF0E021096941F00E
:1028800004014FF0E022116107E04FF0E0210969F7
:1028900021F004014FF0E022116170477047000001
:1028A00010B51348006840F001001149086008465F
:1028B0004068104908400E494860084600680E49C3
:1028C00008400B4908600846006820F48020086032
:1028D0000846406820F4FE0048604FF41F008860FE
:1028E000FFF753FF4FF000600449086010BD00007F
:1028F000001002400000FFF8FFFFF6FE08ED00E0C8
:10290000F0B50C46154600220021068C4FF6FE77E6
:102910003E400684028B018C4FF60C7632407E1CC2
:1029200006EA03162E433243104EB0420ED0104E2C
:10293000B0420BD0B0F1804F08D00E4EB04205D05F
:102940000D4EB04202D00D4EB04206D14FF6FD768C
:10295000314044F00106314305E04FF6F576314051
:1029600044F00106314302830184F0BD002C014094
:10297000003401400004004000080040000C00400A
:10298000F0B50C461546002200210026078C4FF6B4
:10299000EF7C07EA0C070784028B018C4FF6FF7768
:1029A00007EA041640F6FF473A404FF6FF7707EA7A
:1029B00003373A434FF6FF7707EA05273A43114FAB
:1029C000B8420ED0104FB8420BD0B0F1804F08D0B3
:1029D0000E4FB84205D00E4FB84202D00D4FB8424C
:1029E00006D14FF6DF77394046F01007394305E04E
:1029F0004FF65F77394044F0100739430283018472
:102A0000F0BD0000002C01400034014000040040F3
:102A100000080040000C0040F0B50C4615460022AE
:102A200000210026078C4FF6FF6C07EA0C0707848D
:102A3000828B018C4FF6FF7707EA04264FF60C775E
:102A40003A404FF6FF7707EA03172F433A43114FF7
:102A5000B8420ED0104FB8420BD0B0F1804F08D022
:102A60000E4FB84205D00E4FB84202D00D4FB842BB
:102A700006D14FF6FF57394046F48077394305E0D9
:102A80004FF2FF57394044F4807739438283018401
:102A9000F0BD0000002C0140003401400004004063
:102AA00000080040000C0040F0B50C46154600221E
:102AB00000210026078C4EF6FF7C07EA0C070784EE
:102AC000828B018C4FF6FF7707EA043640F6FF470A
:102AD0003A404FF6FF7707EA05273A434FF6FF776C
:102AE00007EA03373A43114FB8420ED0104FB842AD
:102AF0000BD0B0F1804F08D00E4FB84205D00E4F2A
:102B0000B84202D00D4FB84206D14DF6FF7739409A
:102B100046F48057394305E047F6FF57394044F4FF
:102B20008057394382830184F0BD0000002C0140AE
:102B3000003401400004004000080040000C004048
:102B400030B589B005460C46012140F60500FFF777
:102B500051FD18208DF823004001ADF8200003201E
:102B60008DF8220008A91E48FEF770FC05A800F0A9
:102B700081FB0020ADF81A00ADF81600ADF8185032
:102B8000ADF8144005A9174800F022FB7020ADF8FD
:102B900004000220ADF80C000120ADF80600002072
:102BA000ADF80A0001A90F4800F02EFA01A90D485E
:102BB00000F080FA01210B4800F084F80821094850
:102BC00000F06EFA0821074800F0C6FA0121054816
:102BD00000F05AF80121034800F068F809B030BD50
:102BE00000080140002C014010B50121880700F0C9
:102BF00091F918B10121880700F055F810BD0000C7
:102C000010B50121044800F085F918B101210248EE
:102C100000F049F810BD0000000400403EB5054634
:102C20000C4601210220FFF7C5FC0F4800F05AF8BE
:102C3000ADF80450ADF800400020ADF80600ADF846
:102C400002006946084800F0C3FA0121064800F076
:102C500027F801221146044800F0CDF9002102486E
:102C600000F024F83EBD00000004004010B5012132
:102C7000044800F04FF918B10121024800F013F8A0
:102C800010BD00000008004021B1028842F080021F
:102C9000028004E002884FF67F731A40028070477A
:102CA000CA4302827047CA430282704721B1028838
:102CB00042F00102028004E002884FF6FE731A40DF
:102CC0000280704731B1B0F8442042F40042A0F8CD
:102CD000442005E0B0F84420C2F30E02A0F84420DE
:102CE0007047000010B504466848844208D10121AD
:102CF000C014FFF78FFC0021E014FFF78BFCC4E049
:102D0000B4F1804F08D101210846FFF763FC002190
:102D10000120FFF75FFCB8E05D48844208D1012143
:102D20000220FFF757FC00210220FFF753FCACE024
:102D30005848844208D101210420FFF74BFC0021B0
:102D40000420FFF747FCA0E05348844208D101214A
:102D50000820FFF73FFC00210820FFF73BFC94E030
:102D60004E48844208D101211020FFF733FC002196
:102D70001020FFF72FFC88E04948844208D1012148
:102D80002020FFF727FC00212020FFF723FC7CE018
:102D90004448844208D101214014FFF73BFC002144
:102DA0006014FFF737FC70E03F48844209D10121ED
:102DB000C804FFF72FFC00214FF40020FFF72AFC86
:102DC00063E03A48844209D101210805FFF722FC5B
:102DD00000214FF48010FFF71DFC56E03448844278
:102DE00009D101214805FFF715FC00214FF400101F
:102DF000FFF710FC49E02F48844208D10121402010
:102E0000FFF7E8FB00214020FFF7E4FB3DE02A4804
:102E1000844208D101218020FFF7DCFB00218020C3
:102E2000FFF7D8FB31E02548844208D10121801505
:102E3000FFF7D0FB0021A015FFF7CCFB25E02048D1
:102E4000844209D101210804FFF7E4FB00214FF47B
:102E50008030FFF7DFFB18E01A48844209D10121D6
:102E60004804FFF7D7FB00214FF40030FFF7D2FBF7
:102E70000BE01548844208D101218804FFF7CAFB02
:102E800000214FF48020FFF7C5FB10BD002C01404E
:102E90000004004000080040000C0040001000400A
:102EA0000014004000340140004C0140005001403B
:102EB0000054014000180040001C00400020004069
:102EC000004001400044014000480140F0B50C467C
:102ED00015461E460021002200230189028B038C27
:102EE0004FF6F877394021434FF6FC473A4040F21D
:102EF00001173A434FF6DD773B404FF6FF7707EA7D
:102F000006172F433B43018102830384F0BD014632
:102F1000888C704730B50246002000230024158AB3
:102F200005EA0103958905EA010413B10CB10120FA
:102F300000E0002030BD000070B505460C46244876
:102F400085420ED0234885420BD0B5F1804F08D082
:102F50002148854205D02148854202D0204885423B
:102F600000D100E000BF208850B92389A288618881
:102F70002846FFF7C5FCE188284600F0FCF825E06C
:102F8000208804280AD12389A28861882846FFF76F
:102F9000F7FCE188284600F0F7F817E020880828B9
:102FA0000AD12389A28861882846FFF735FDE18888
:102FB000284600F0F6F809E02389A28861882846AF
:102FC000FFF772FDE188284600F0F4F870BD0000BC
:102FD000002C014000340140000400400008004083
:102FE000000C0040002101804180012181800021EE
:102FF000C180018170471AB183890B43838102E04C
:1030000083898B438381704770B50024002200239D
:10301000058C4FF6FE7635400584028C8388048B40
:103020004FF68F752C40B51E2C400D882C43751E15
:103030002A400D892A434D882A43144DA8420BD0BB
:10304000134DA84208D0134DA84205D0124DA842F6
:1030500002D0124DA84213D14FF6F7752A404D8980
:103060002A434FF6FB752A408D882A434FF6FF65A9
:103070002B404FF6FF552B408D892B43CD892B4399
:1030800083800483CD888586028470BD002C014036
:10309000003401400040014000440140004801402C
:1030A0000A460021018B4FF6F77319401143018343
:1030B0007047000070B5002400220023058C4FF6F5
:1030C000EF7635400584028C8388048B48F6FF75C3
:1030D0002C404FF6FF452C400D884FF6FF7606EA50
:1030E00005252C434FF6DF752A400D8906EA0515A4
:1030F0002A434D8806EA05152A43154DA84202D0F9
:10310000144DA8421DD14FF67F752A404D894FF6C8
:10311000FF7606EA05152A434FF6BF752A408D88CB
:1031200006EA05152A434FF6FF352B404FF2FF758F
:103130002B408D8906EA85052B43CD8906EA850556
:103140002B4383800483CD880587028470BD0000F3
:10315000002C0140003401400A460021018B4FF24F
:10316000FF7319404FF6FF7303EA022319430183EB
:10317000704781847047028B4FF6F3731A400283C5
:10318000028B0A4302837047028B4FF2FF331A40CF
:103190000283028B4FF6FF7303EA01231A43028373
:1031A0007047828B4FF6F3731A408283828B0A43F7
:1031B00082837047828B4FF2FF331A408283828B67
:1031C0004FF6FF7303EA01231A438283704700001E
:1031D000002202881D4B98420ED01D4B98420BD006
:1031E000B0F1804F08D01B4B984205D01A4B984243
:1031F00002D01A4B984204D14FF68F731A404B8875
:103200001A43174B984207D0164B984204D04FF6FA
:10321000FF431A40CB881A4302808B8883850B8832
:1032200003850A4B98420BD0094B984208D00E4BAD
:10323000984205D00D4B984202D00D4B984201D1D7
:103240000B7A03860123838270470000002C014023
:10325000003401400004004000080040000C004021
:1032600000100040001400400040014000440140B4
:10327000004801404FF6FF71818000210180C1802C
:10328000418001727047000000B587B00121042021
:10329000FFF7B0F901214804FFF78CF90420ADF8DD
:1032A000180018208DF81B0003208DF81A0006A9BD
:1032B0002348FEF7CBF80820ADF8180004208DF85D
:1032C0001B0006A91E48FEF7C1F80020ADF800005B
:1032D000ADF802004FF40070ADF804000020ADF826
:1032E00006006946174800F02CF94FF4E1300290CF
:1032F0000020ADF80C00ADF80E00ADF81000ADF8F0
:1033000014000C20ADF8120002A90E4800F09CF940
:1033100040F225510B4800F00BF9012240F2244104
:10332000084800F06BF901224021064800F026F918
:1033300000F00AF80121034800F014F907B000BDBD
:10334000000801400044004000B58BB00121084650
:10335000FFF720F9144800901448019000200290D3
:103360004FF47A7003900020049080200590002094
:1033700006900790202008900002099000200A90F3
:1033800069460B48FDF78FFD4FF40010FDF764FD13
:10339000012208210648FDF77DFD01210448FDF7C3
:1033A00069FD0BB000BD0000044400403817002048
:1033B0006C00024010B540F22441414800F0F4F89E
:1033C00000287CD0FFF7C2F901203E4908703C4834
:1033D00000F0A6F93C49087008460078302809D169
:1033E00000203A4908703A4908703A4908703A4949
:1033F000087046E03448007831280AD1012033496A
:10340000087000203249087032490870324908704B
:1034100037E02D48007832280BD100202B49087066
:1034200001202B49087000202A4908702A49087099
:1034300027E02548007833280BD100202349087065
:103440002349087001202349087000202249087090
:1034500017E01D48007834280AD100201B49087065
:103460001B4908701B49087001201B49087008E0BF
:103470000020164908701649087016490870164948
:103480000870114800782B2806D1012013490870D4
:1034900013A003F0FDFD0CE00B4800782D2808D1A7
:1034A00000200E49087013A003F0F2FD0020174918
:1034B00008700A480078012801D103F0B3FE10BD5E
:1034C000004400409C000020840000208000002078
:1034D0008100002082000020830000208500002061
:1034E0006F70656E2070696420726567756C6174B9
:1034F000650D0A00636C6F736520706964207265E6
:1035000067756C6174650D0A00000000860000207C
:1035100010B504462146054800F007F900BF4021D8
:10352000024800F034F80128F9D110BD00440040F1
:1035300001F40072B2F5007F00D100BFCA430280DF
:10354000704710B502460020108A4FF2FF03184062
:103550000B884C8823438C882343CC88234318430F
:10356000108210BD21B1828942F40052828104E0B0
:1035700082894DF6FF731A40828170471AB1838A9F
:103580000B43838202E0838A8B4383827047024627
:103590000020B1F5007F00D100BF13880B400BB1B4
:1035A000012000E00020704770B50246002400238F
:1035B0000025002040F66A16B14200D100BFC1F3D9
:1035C000421501F01F03012606FA03F3012D02D173
:1035D0009689334006E0022D02D1168A334001E07D
:1035E000968A33400C12012606FA04F416883440F9
:1035F00013B10CB1012000E0002070BDF0B503460E
:10360000002400260025002040F66A17B94200D1A8
:1036100000BF1846C1F3421401F01F06012707FA44
:1036200006F5012C01D10C3004E0022C01D1103040
:1036300000E014301AB107682F43076002E0076802
:10364000AF430760F0BD00002DE9F04786B00546A6
:103650000E460024A24600BFA1460027B08900B153
:1036600000BF2F462C8A4CF6FF700440F0880443BC
:103670002C82AC894EF6F3100440B088318908439F
:10368000718908430443AC81AC8A4FF6FF40044083
:10369000B0890443AC8201A8FEF7CCFF1F488742E3
:1036A00002D1DDF810A001E0DDF80CA0A88900F43B
:1036B000004040B10AEBCA0000EB0A103168490033
:1036C000B0FBF1F807E00AEBCA0000EB0A10316822
:1036D0008900B0FBF1F86420B8FBF0F00401200988
:1036E000642101FB1089A88900F4004040B1322018
:1036F00000EBC900B0FBF1F000F00700044308E064
:10370000322000EB09106421B0FBF1F000F00F0053
:1037100004432C8106B0BDE8F0870000003801406A
:1037200001468888C0F308007047C1F30802828010
:10373000704700BFFEE700000FB4054B10B503A9AA
:10374000044A029800F09AF810BC5DF814FB0000DF
:103750007953000830170020490050EAC12018BFF3
:1037600004204A0D18BF40F0010040F2FF72B2EB96
:10377000515F08BF40F00200012808BF05207047D4
:103780002DE9F0414F1E00EBC7010446D1E90001CD
:1037900015461E4637F006020DD02A463346FCF782
:1037A00099FE7F1E04EBC703D3E90023FCF7EBFD72
:1037B00037F00602F1D1022F25D0042F13D0062FA7
:1037C00018BFBDE8F0812A463346FCF783FED4E9F2
:1037D0000A23FCF7D8FD2A463346FCF77BFED4E9E2
:1037E0000823FCF7D0FD2A463346FCF773FED4E9E4
:1037F0000623FCF7C8FD2A463346FCF76BFED4E9E6
:103800000423FCF7C0FD2A463346FCF763FED4E9E7
:103810000223FCF7B8FD2A463346FCF75BFED4E9E9
:103820000023BDE8F041FCF7AEBD0122FDF716B95B
:10383000FCF7A9BD0022134610461146FCF7BCBE9A
:10384000024A00201107FDF709B9000001FDFFFF42
:1038500002E008C8121F08C1002AFAD17047704759
:10386000002001E001C1121F002AFBD170470000B7
:103870000149086070470000341700202DE9FF4F10
:103880008DB00F460546002606E025280BD0DDE961
:103890000F1290476D1C761C28780028F5D111B0C6
:1038A0003046BDE8F08F0024A246A1460122EC4933
:1038B00000E0044315F8013F203B02FA03F0084200
:1038C000F7D128782A2810D06FF02F022878A0F19D
:1038D0003001092914D80AEB8A0102EB410144F0B6
:1038E000020400EB010A6D1CF0E701CF5FEA000A59
:1038F00003D544F40054CAF1000A44F002046D1CDC
:1039000028782E2817D115F8010F44F004042A282E
:103910000ED06FF02F022878A0F1300109290AD8C3
:1039200009EB890102EB410100EB01096D1CF2E793
:1039300057F8049B6D1C28786C280FD006DC4C28A7
:1039400017D068280DD06A2814D104E0742810D04C
:103950007A280FD10DE044F400140AE044F48014F6
:1039600001E044F440146978814202D104F58014E6
:103970006D1C6D1C2A786E2A1FD00CDC632A31D096
:1039800004DC002A8BD0582A11D1A3E0642A68D025
:10399000692A0CD165E0732A2ED004DC6F2A73D01B
:1039A000702A04D19BE0752A6FD0782A6ED0104619
:1039B000DDE90F129047761C50E1C4F30250022853
:1039C00006D0032809D0042801CF09D0066045E1BC
:1039D00001CFF117C0E9006140E101CF06803DE170
:1039E00006703BE117F8040B8DF8000000208DF8FD
:1039F0000100EB46012003E057F804BB4FF0FF3015
:103A000061074FF0000102D40DE008F10101884682
:103A100049450FDA8045F8DB1BF808100029F4D17E
:103A200008E008F1010188468142FADB1BF8081022
:103A30000029F6D1DDE90F23AAEB080081462146D3
:103A400000F036F9304400EB080604E0DDE90F121F
:103A50001BF8010B9047B8F10108F7D22146484600
:103A6000F7E00A21C4F302534FF0000B0891022B38
:103A700004D001CFC117032B09D00AE0FF1D27F0A6
:103A80000707F7E8020108E032E01FE020E000B29B
:103A9000C117042B01D140B2C117031E71F10003FD
:103AA00007DA4FF0000CD0EB0C006CEB01012D237A
:103AB00002E0230504D52B238DF82430012303E0F5
:103AC000E30701D02023F7E7984658E00A2110E0E9
:103AD00010210EE010204FF0000B08900CE0102198
:103AE0004FF0000B44F004044FF00809089103E084
:103AF00008214FF0000B0891C4F30253022B04D0AD
:103B000001CF0021032B06D006E0FF1D27F0070799
:103B1000F7E8020103E080B2042B00D1C0B24FF0FD
:103B2000000823072BD5702A07D0DDF820C08CF0C1
:103B3000100C5CEA0B0C05D00EE040238DF824300D
:103B4000012308E050EA010306D030238DF8243029
:103B50008DF8252002239846DDF820C08CF0080C53
:103B60005CEA0B0C0BD150EA010301D1630706D5C7
:103B700030238DF824304FF00108A9F10109582AAB
:103B800004D038A20B9208AA0A920BE03AA2F9E7F5
:103B90005B46089AFCF76CFE0B9B9B5C0A9A521ED4
:103BA0000A92137050EA0102F2D10A98ADEB0000BC
:103BB00000F1200B600702D524F4803401E04FF0BF
:103BC0000109D94502DDA9EB0B0000E0002000EB64
:103BD0000B0141440890AAEB010AE00306D4DDE999
:103BE0000F232146504600F063F806444FF00009C9
:103BF00008E009A911F80900DDE90F12904709F161
:103C00000109761CC145F4DBE0030CD5DDE90F2387
:103C10002146504600F04CF8064404E0DDE90F125E
:103C200030209047761C0899481E08900029F5DC42
:103C300008E00A980A990078491C0A91DDE90F12F8
:103C40009047761CBBF10001ABF1010BF1DC214682
:103C50005046DDE90F2300F019F806446D1C1BE601
:103C60000928010030313233343536373839616252
:103C70006364656600000000303132333435363716
:103C80003839414243444546000000002DE9F041E7
:103C9000044600251E461746880404D405E039462C
:103CA0002020B0476D1C641EF9D52846BDE8F08180
:103CB0002DE9F041044600251E469046C80301D573
:103CC000302700E02027880404D505E04146384627
:103CD000B0476D1C641EF9D52846BDE8F081000090
:103CE0002DE9FE4F074688460026684601F04EFB48
:103CF000002444E057F8240058F82410A0EB010AEF
:103D0000BAF1000F01DB514601E0CAF1000108469B
:103D1000FCF7C1FC83464FF08F41FCF7F6FA814671
:103D20005DF824000021FCF78FFD18D05DF8241009
:103D30004846FCF7EAFA82464FF07E51FCF7ADFAAE
:103D4000054600BF25F0004082460F48416A5046B4
:103D5000FCF784FD12D20120A04006430EE00A4881
:103D6000C1694846FCF770FD05D30748016A48461B
:103D7000FCF774FD02D20120A0400643641C032C12
:103D8000B8DB3046BDE8FE8F4C7500082DE9FF5FBB
:103D900001212848FDF74DF800BF02212548FCF716
:103DA000ABFF0028F9D02348FCF7A2FF0446FCF73C
:103DB0007BFC2149086008460068FCF7FDFC804652
:103DC0001E4A1F4BFCF786FB064600221D4BFCF7E4
:103DD000F3FB04461C4A1D4BFCF77CFB82468B46DA
:103DE0001B480068FCF7E8FC52465B46CDE9000141
:103DF000FCF7C9FACDE90201FCF70AFD1449086095
:103E000014480078401C134908700846007832288E
:103E10000BD111490E480068FCF777FA0F4908608A
:103E200000200C4908700A4908600C48006804B07A
:103E3000BDE8F09F0024014000000020295C8FC2F3
:103E4000F5280A4000FEAF405C8FC2F5285C1040A8
:103E50000C00002008000020000048420400002060
:103E60002DE9F04D8D4F21F0004A86B005460C46F5
:103E7000BA452ADBAAEB070028430AD088488245C6
:103E800001DC1AD1CDB106B02846BDE8F04DFFF7F0
:103E9000CCBC844A844B2846FCF71CFB07460E46E4
:103EA000824A834B28462146FCF714FB06B03A466B
:103EB0003346BDE8F04DFCF766BA0120FFF7D8FCA9
:103EC00006B0BDE8F04DFFF7B5BC7A48824542DA4E
:103ED000BAF1795F0BDA2846FFF73EFC042808BFE9
:103EE000FFF7AEFC284606B02146BDE8F08D2A4615
:103EF0000B461046FCF7EEFA834602466E480E4625
:103F00000B4606217844FFF73BFC5A463346FCF744
:103F1000E1FA804669488A465A4633460421784485
:103F2000FFF72EFC5A463346FCF7D4FA00223B46F4
:103F3000FCF729FA02460B4640465146FCF73CFB8B
:103F40002A462346FCF7C6FA06B02A462346BDE8B1
:103F5000F04DFCF718BA284624F0004100223D46F7
:103F60003B46FCF7B4FA4FF0FF32FCF777FD06460C
:103F7000024653480F460B4606217844FFF700FCE3
:103F800032463B46FCF7A6FACDE900014D483246E1
:103F90003B4604217844FFF7F3FB32463B46FCF7EF
:103FA00099FA00222B46FCF7EEF98346029130463F
:103FB000394603F011F9804643480D46504517DC59
:103FC000DDE900015A46029BFCF7F6FA42462B4611
:103FD000FCF780FA42462B46FCF7D5F90122FCF7A4
:103FE0003DFD304A304BFCF76FFA304A304B4CE025
:103FF0004FF0000A52460B464046FCF7C4F9CDE9A3
:10400000031052462B4610461946FCF763FA324617
:104010003B46FCF75CFADDE90332FCF7CDFA0646D5
:104020000F46DDE900015A46029BFCF7C5FA8346BC
:104030000091012230463946FCF710FD194A1A4B0F
:10404000FCF745FA06460F46012240462946FCF792
:1040500005FD5A46009BFCF73DFA32463B46FCF70D
:1040600033FA06460F46012250462946FCF7F6FC75
:104070000E4DDFF858802A464346FCF728FA3246B0
:104080003B46FCF724FA2A464346FCF720FA002C6C
:10409000D8BF81F0004106B0BDE8F08D0000F03FD0
:1040A0000000F07F075C143326A6913C182D445481
:1040B000FB21F93F0000E03F684200007E42000023
:1040C000F2410000084200003333EF3FFB21E93F9B
:1040D0002DE9F84F04460D4621F000400091734948
:1040E000814211DC7249884201DC06D12CB12046A4
:1040F0002946BDE8F84FFFF798BB6E48002DCCBFAE
:104100006D496E49BDE8F88F6D49814211DD6D49F9
:104110008142D8BF4FF0FF366DDD20462946FFF7BC
:104120001BFB042808BFFFF78BFB20462946BDE890
:10413000F88F6549654F25F00045814233DD6449BC
:10414000814219DD002632464FF080432046294641
:10415000FCF719F980468A46012220462946FCF7D9
:104160007DFC00223B46FCF7AFF942465346FCF784
:1041700023FA04460D463EE001260022BA463B469D
:1041800020462946FCF7FFF880460F46002253469A
:1041900020462946FCF798F942463B46FCF70CFAC4
:1041A00004460D4627E04B4981421BDDDFF828A17C
:1041B00002260022534620462946FCF78BF90022AE
:1041C0003B46FCF7E0F880460F4600225346204667
:1041D0002946FCF779F942463B46FCF7EDF90446DF
:1041E0000D4608E0032622462B4600203B49FCF7FB
:1041F000E3F904460D4622462B4610461946FCF7C5
:1042000069F98B46824602460B46FCF763F907467E
:104210000246334888460B4606217844FFF7B0FA39
:1042200052465B46FCF756F982462E488B463A4684
:10423000434605217844FFF7A3FA3A464346FCF784
:1042400049F902460B46002E504659460CDAFCF757
:104250009AF822462B46FCF73DF901B022462B4640
:10426000BDE8F04FFCF733B9FCF78DF822462B463A
:10427000FCF730F91C4A7A4402EBC603D3E9002369
:10428000FCF722F922462B46FCF71EF9174A7A441E
:1042900002EBC603D3E90023FCF719F9009A002AC0
:1042A000B8BF81F00041BDE8F88F00000000104465
:1042B0000000F07F182D4454FB21F93FFB21F9BF8A
:1042C0000000DC3F0000203E0000F33F0000F03F14
:1042D0000000E63F008003400000F83F0000F0BF10
:1042E0000A400000C83F0000663F00002E3F00006B
:1042F0002DE9F04D9446CCF1000423F000464CEA41
:104300000404524F46EAD4749A46884621F000428B
:10431000BC4206D8454240EA050442EAD474BC4295
:1043200004D9BDE8F04D6246FFF782BAAAF14055C4
:10433000A5F17F6555EA0C040BD0022404EAAA74A7
:10434000434DDFF810E144EAD87452EA000B04D080
:104350000CE0BDE8F04DFFF7BBBE002C14BF012CF4
:10436000BDE8F08D022C30D0032C32D056EA0C0B75
:104370000AD0BE4220D1BA4209D126F0804622F0AE
:1043800080423346114617E000291ADB25E0DFF8AA
:10439000C8B0FB44002C04BFDBE90001BDE8F08D90
:1043A000012C02BFDBE9000181F00041BDE8F08D86
:1043B000022C0AD0032C0CD0BA4212D1B8F1000F53
:1043C0000BDA23482549BDE8F08D28462449BDE88D
:1043D000F08D28467146BDE8F08D1D482149BDE8A5
:1043E000F08D921B12153C2AC4BF19481D490EDCE2
:1043F000BAF1000FBEBF12F13C0F0020014606DBF0
:104400006246FCF7D9F821F00041FFF761FE002C6D
:1044100008BFBDE8F08D012C04BF81F00041BDE86C
:10442000F08D114A114B022C07D0FCF74DF82A46AB
:10443000BDE8F04D0A4BFCF747B8FCF745F82A46B3
:10444000BDE8F04D064BFCF742B800000000F07FDD
:10445000182D4454FB2109C0C23E0000FB21F9BFC6
:10446000FB210940FB21F93F075C143326A6A13C40
:104470000120014908607047948121422DE9F041F3
:104480000446E07800F0C006E07800F03F05607870
:1044900000F0010098B1EF102846E91705EB5171C3
:1044A000C910A5EBC101491C01F0FF080B480068C9
:1044B00020B10A48414602683846904700BF6078FC
:1044C00000F0080030B10548406818B1B011034A47
:1044D000516888470020BDE8F0810000081F0020D7
:1044E00010B56FF00400FEF7C5F90A4800680A49E4
:1044F000B0FBF1F0094908700846007800EB400174
:10450000C1EBC0104FF6FF7101EAC00004490880FA
:1045100010BD00000817002000127A0002170020CA
:10452000041700200146114A12884A434FF0E02345
:104530005A6100229A611A46126942F001021A6118
:1045400000BF4FF0E022106900F001021AB100F440
:104550008032002AF5D04FF0E022126922F00102E9
:104560004FF0E0231A6100229A617047041700207F
:104570000146114A12784A434FF0E0235A61002263
:104580009A611A46126942F001021A6100BF4FF0A7
:10459000E022106900F001021AB100F48032002A12
:1045A000F5D04FF0E022126922F001024FF0E02333
:1045B0001A6100229A6170470217002038B504463C
:1045C00064B120208DF8000028208DF801003020F3
:1045D0008DF8020038208DF8030004E0A3220421A6
:1045E0006846FBF7E2FD6A46042140F69E2002F091
:1045F000CBFB01F0B5FF38BD3EB5044602208DF877
:104600000000CA208DF80100E3208DF80200092087
:104610008DF803006A460421682002F0B5FBA32050
:104620008DF8000004F0400048B1C0208DF8010072
:10463000C8208DF80200C2208DF8030006E0A320F8
:104640008DF801008DF802008DF8030004F4C070AD
:1046500048B1C4208DF80400CC208DF80500C62098
:104660008DF8060006E0A3208DF804008DF8050003
:104670008DF80600A3208DF807008DF808008DF84E
:1046800009006A460A2140F6A72002F07DFB04F0EB
:10469000030018B120208DF8000002E0D8208DF82A
:1046A00000006A46012140F6B62002F06DFB04F0DE
:1046B000200018B1012000F0ADF802E0002000F069
:1046C000A9F804F4C07008B304F4807060B1B2209B
:1046D0008DF800008B208DF80100B6208DF80200C7
:1046E0009B208DF803000BE0B0208DF800008020A7
:1046F0008DF80100B4208DF8020090208DF80300A1
:104700006A46042140F6A22002F03EFB04F00100BC
:1047100020B3F8208DF800006A4601214FF40B60A9
:1047200002F032FBFA21072000F02CFC072000F0F9
:10473000F3FB012000F013FC642000F0F3FC4FF4C5
:10474000FA7000F002FDC821304800F0A3FB2820D9
:1047500000F0BCFB0A2000F0CCFB08E0D8208DF86C
:1047600000006A4601214FF40B6002F00DFB04F0DB
:10477000020018B1D9208DF8000002E0D8208DF891
:1047800000006A46012140F23D7002F0FDFA04F09B
:10479000040018B1012000F069F802E0002000F0E8
:1047A00065F804F0100018B10120FFF707FF02E0E0
:1047B0000020FFF703FF44F008001549488101F08D
:1047C000CFFE00201249887304F0400018B108465B
:1047D000807B801D887304F4C07020B10C48807BFE
:1047E000801D0B49887304F0140020B10848807BB9
:1047F00010300749887304F0030020B10448807B1F
:10480000001D0349887300203EBD000009E3CA0271
:10481000081F00203EB504466CB10EA1D1E900206E
:104820008968CDE9002002916A4609214FF497601A
:1048300002F0AAFA3EBD0AA2D2E900109268CDE9C0
:10484000010200916A4609214FF4976002F09CFA38
:10485000F0E70000B8AAB38DB4980D355D000000F4
:10486000B8AAAAAAB088C3C5C700000038B50446D4
:1048700064B1C0208DF80000C2208DF80100C42072
:104880008DF80200C6208DF8030004E08B2204217D
:104890006846FBF78AFC6A46042140F6982002F03D
:1048A00073FA01F05DFE38BD10B5C8234FF4806285
:1048B000024940F6F63001F0E7FC10BD74750008BF
:1048C0002DE9F04F8DB00746884615469946DDE93B
:1048D000166B0024002030806B49887B5A4605A95E
:1048E00001F09EFD18B1601E0DB0BDE8F08F664866
:1048F000807A00F01400002867D09DF814000006AC
:104900009DF8151040EA01409DF8161040EA01207C
:104910009DF81710084328609DF8180000069DF8C0
:10492000191040EA01409DF81A1040EA01209DF854
:104930001B10084368609DF81C0000069DF81D10C0
:1049400040EA01409DF81E1040EA01209DF81F102A
:104950000843A8609DF8200000069DF8211040EA59
:1049600001409DF8221040EA01209DF823100843E1
:10497000E86004F11000C4B228680014019068686F
:1049800000140290A86800140390E86800140490D2
:1049900001984043029901FB0100039901FB0100CA
:1049A000049901FB010ABAF1706F02DBBAF1885F6A
:1049B00005DD01F0D5FD00203080401E94E7B6F9FA
:1049C000000040F48070308000BF2F48807A00F0F3
:1049D000400020B305A9601C085C095D40EA012085
:1049E00000B2A8F8000005A9E01C095C05AAA01CFB
:1049F000105C41EA002000B2A8F8020005A9601D81
:104A0000095C201D105C41EA002000B2A8F80400F7
:104A1000A01DC4B2B6F9000040F0080030801A486A
:104A2000408900F4C07008B305A9601C085C095DEA
:104A300040EA012000B2388005A9E01C095C05AA03
:104A4000A01C105C41EA002000B2788005A9601D1E
:104A5000095C201D105C41EA002000B2B880A01D56
:104A6000C4B2B6F9000040F0700030800648807A89
:104A700000F0030018B105A90819FFF7FFFC48462C
:104A800001F072F800202FE7081F002070B588B0F1
:104A9000064601A801F04CFABDF804000021C90344
:104AA00041EA5045C4034448007A00F0030056F838
:104AB000200005904048007A00F0040010B10598ED
:104AC000404205903C48007AC0F3C10056F82000EF
:104AD00006903948007A00F0200010B10698404254
:104AE00006903548007AC0F3811056F820000790F0
:104AF0003148008900F4807010B107984042079057
:104B00000598C117A0FB042301FB043100FB05102D
:104B1000810041EA927005900698C117A0FB04231A
:104B200001FB043100FB0510810041EA9270069000
:104B30000798C117A0FB042301FB043100FB0510FB
:104B4000810041EA927007900598000E8DF80800E8
:104B50000598000C8DF809000598000A8DF80A00E8
:104B60000598C0B28DF80B000698000E8DF80C0069
:104B70000698000C8DF80D000698000A8DF80E00BE
:104B80000698C0B28DF80F000798000E8DF810003F
:104B90000798000C8DF811000798000A8DF8120094
:104BA0000798C0B28DF8130002AA0C214FF42570AB
:104BB00002F0EAF808B070BD081F002030B585B0DB
:104BC000044616A207CA02AB07C3C82C03DD4FF088
:104BD000FF3005B030BDC82090FBF4F0401E85B218
:104BE000280A8DF80000E8B28DF801006A4602211B
:104BF00040F2162002F0C8F810B14FF0FF30E8E79D
:104C000002AA0C2140F6C12002F0BEF810B14FF00C
:104C1000FF30DEE7044884810020DAE7FEF2ABC40F
:104C2000AAF1DFDFBBAFDFDF081F00201FB504469E
:104C30004848007A00F0030054F8200001904548ED
:104C4000007A00F0040010B1019840420190414800
:104C5000007AC0F3C10054F8200002903D48007A69
:104C600000F0200010B10298404202903948007ACA
:104C7000C0F3811054F8200003903648008900F4F6
:104C8000807010B10398404203903349019880FB33
:104C90000101800F40EA810001902F49029880FBBA
:104CA0000110820042EA917002902B49039880FB28
:104CB0000110820042EA917003900198000E8DF875
:104CC00000000198000C8DF801000198000A8DF891
:104CD00002000198C0B28DF803006A4604214FF427
:104CE000747002F051F818B14FF0FF3004B010BDED
:104CF0000298000E8DF800000298000C8DF801005B
:104D00000298000A8DF802000298C0B28DF80300E4
:104D10006A4604214FF4757002F036F810B14FF076
:104D2000FF30E3E70398000E8DF800000398000CB5
:104D30008DF801000398000A8DF802000398C0B2B4
:104D40008DF803006A4604214FF4767002F01CF8D7
:104D5000CCE70000081F002009E3CA0210B586B0A6
:104D6000044647A00068039046A00068029046A051
:104D70000068019045A00068009004F0030003A9BA
:104D8000085C8DF8140003A8C4F3C101405C8DF8E1
:104D9000150003A8C4F38111405C8DF8160004F0DF
:104DA000030002A9085C8DF8100002A8C4F3C10139
:104DB000405C8DF8110002A8C4F38111405C8DF8AD
:104DC000120005AA032140F2264001F0DDFF18B1D0
:104DD0004FF0FF3006B010BD04AA032140F22A4074
:104DE00001F0D2FF10B14FF0FF30F3E701980590CA
:104DF0000098049004F0040058B19DF8140040F0AD
:104E000001008DF814009DF8100040F001008DF8AD
:104E1000100004F0200058B19DF8150040F001008A
:104E20008DF815009DF8110040F001008DF811007B
:104E300004F4807058B19DF8160040F001008DF820
:104E400016009DF8120040F001008DF8120005AA2E
:104E500003214FF4886001F097FF10B14FF0FF304D
:104E6000B8E704AA032140F2314001F08DFF10B1F0
:104E70004FF0FF30AEE7064804810020AAE70000AB
:104E80004CCD6C000CC92C003656760026466600C8
:104E9000081F0020F8B505460E464FF47A7095FBC2
:104EA000F0F000FB06F4200E8DF80000200C8DF8C9
:104EB0000100200A8DF80200E0B28DF803006A4676
:104EC00004214FF4AE7001F05FFFF8BD38B5044621
:104ED000052094FBF0F084B220128DF80000E0B2BF
:104EE0008DF801006A4602214FF4AD7001F04CFFCD
:104EF00038BD38B50446052094FBF0F084B220128A
:104F00008DF80000E0B28DF801006A4602214FF4EE
:104F1000AC7001F039FF38BD38B504460020009070
:104F200004F0010020B19DF8000040F03000009036
:104F300004F0020020B19DF8000040F00C00009049
:104F400004F0040020B19DF8000040F00300009040
:104F50006A4601214FF4A47001F016FF38BD38B540
:104F60000446012C01DA012402E0042C00DD0424B3
:104F7000601EC0B200906A46012140F24F1001F05D
:104F800003FF38BD2DE9FC4706460F4606F0070033
:104F900010B1B7F5C86F03DD4FF0FF30BDE8FC87F7
:104FA0003846FBF781FB81465949FBF7AEF980464D
:104FB000684600F097FF9DF80000022806D00428FC
:104FC00016D0082826D0102848D135E04FF08D4162
:104FD0004046FBF768F98146FBF7A2FB84B24D49D6
:104FE0004046FBF760F98146FBF79AFB85B238E053
:104FF0004FF08C414046FBF756F98146FBF790FB9A
:1050000084B245494046FBF74EF98146FBF788FBE1
:1050100085B226E04FF08B414046FBF744F98146CC
:10502000FBF77EFB84B23D494046FBF73CF98146E5
:10503000FBF776FB85B214E04FF08A414046FBF760
:1050400032F98146FBF76CFB84B235494046FBF7E9
:105050002AF98146FBF764FB85B202E04FF0FF308E
:105060009CE700BF20128DF80400E0B28DF8050027
:1050700028128DF80600E8B28DF8070006F001004E
:10508000A0B101AA02214FF4EA7001F07DFE10B137
:105090004FF0FF3082E70DF1060202214FF49270CB
:1050A00001F072FE10B14FF0FF3077E706F002001A
:1050B000A0B101AA02214FF4EC7001F065FE10B11D
:1050C0004FF0FF306AE70DF1060202214FF49470B1
:1050D00001F05AFE10B14FF0FF305FE706F0040018
:1050E000A0B101AA02214FF4EE7001F04DFE10B103
:1050F0004FF0FF3052E70DF1060202214FF4967097
:1051000001F042FE10B14FF0FF3047E7002045E7C5
:1051100000004843000040460000C04500004045F4
:105120000000C04438B50446052094FBF0F085B279
:1051300028128DF80000E8B28DF801006A460221BD
:105140004FF4EF7001F020FE38BD38B5044605205D
:1051500094FBF0F085B228128DF80000E8B28DF8CB
:1051600001006A4602214FF4ED7001F00DFE38BDDA
:1051700038B50446012C02D0022C12D108E00A48AE
:1051800007237F22002100900846FCF72AFE08E052
:10519000064807237F22002100900846FCF721FEE5
:1051A00000BF00BF38BD0000010F00200113002028
:1051B00010B5ACB01422664927A8FAF7E4FF002422
:1051C00005E027A9085DFEF7A3F9601CC4B20B2C0B
:1051D000F7DB0D20FEF79CF90A20FEF799F90A206B
:1051E000FFF7A0F95A4A1432D2E900109268CDE9CB
:1051F00025022491002400BF05E024A9085DFEF7E4
:1052000087F9601CC4B2062CF7DB0D20FEF780F98D
:105210000A20FEF77DF94FF49670FFF783F9142208
:105220004B4920311FA8FAF7AEFF002400BF05E06C
:105230001FA9085DFEF76CF9601CC4B20B2CF7DBEC
:105240000D20FEF765F90A20FEF762F90A20FFF744
:1052500069F928223E49343115A8FAF794FF002451
:1052600000BF05E015A9085DFEF752F9601CC4B245
:105270001F2CF7DB0D20FEF74BF90A20FEF748F94B
:105280004FF4E160FFF74EF94FF4E160FFF74AF9A0
:105290004FF4E160FFF746F94FF4E160FFF742F9A0
:1052A0004FF47A70FFF73EF9282229495C310BA8A8
:1052B000FAF769FF002400BF05E00BA9085DFEF7BF
:1052C00027F9601CC4B2252CF7DB0D20FEF720F96E
:1052D0000A20FEF71DF9C820FFF724F914221C4903
:1052E000843106A8FAF74FFF002400BF05E006A9A5
:1052F000085DFEF70DF9601CC4B20C2CF7DB0D2025
:10530000FEF706F90A20FEF703F90A20FFF70AF96B
:1053100014220F49983101A8FAF735FF002400BF85
:1053200005E001A9085DFEF7F3F8601CC4B20A2C81
:10533000F7DB0D20FEF7ECF80A20FEF7E9F80A206B
:10534000FFF7F0F803A001F0A3FE2CB010BD0000A1
:10535000787400087769666920636F6E6E656374A0
:10536000696F6E2069732073756363657373667507
:105370006C210D0A0000000038B504468DF80000CD
:1053800069460320ABBE204638BD00007CB505460B
:1053900028494968087801AB04220D21FCF7A7FBD6
:1053A00008B107207CBD9DF80700C0F301109DF8EF
:1053B000041001F0E00140EAE1008DF800009DF8E2
:1053C0000700C0F381009DF8051001F0E00140EAFC
:1053D000E1008DF801009DF8070000F003009DF842
:1053E000061001F0E00140EAE1008DF8020000241F
:1053F0001CE01DF8040018B9002045F8240013E053
:105400000D4845F8240006E055F824000B49FAF74A
:105410004AFF45F824001DF80400401EC0B20DF8F4
:1054200004000028F0D100BF601CC4B2032CE0DBF4
:105430000020B7E7A80000207B14AE3E1D5A843F31
:105440002DE9F04F87B005460C46914601208DF8B6
:10545000100000208DF81100FE4A1268917CFD4A70
:105460005268107804AB0222FCF7E7FB20B14FF042
:10547000FF3007B0BDE8F08FC820FFF753F80020D9
:105480008DF81000F34A1268D17BF24A5268107806
:1054900004AB0122FCF7D1FB10B14FF0FF30E8E77D
:1054A000EC4A12685179EB4A5268107804AB012239
:1054B000FCF7C3FB10B14FF0FF30DAE7E54A1268A2
:1054C000917CE44A5268107804AB0122FCF7B5FBEA
:1054D00010B14FF0FF30CCE7DE4A1268D17DDD4AD3
:1054E0005268107804AB0122FCF7A7FB10B14FF013
:1054F000FF30BEE7D74A12681179D64A5268107851
:1055000004AB0122FCF799FB10B14FF0FF30B0E77C
:105510000C208DF81000CF4A12681179CD4A5268DC
:10552000107804AB0122FCF788FB10B14FF0FF307C
:105530009FE70F20FEF7F6FFC648806A407A8DF895
:105540001000C44A12689178C24A5268107804ABBD
:105550000122FCF772FB10B14FF0FF3089E7BD4824
:10556000806A007A8DF81000BA4A12685178B94AF8
:105570005268107804AB0122FCF75FFB10B14FF0CA
:10558000FF3076E7B9F1000F07D0B248806A807A21
:1055900040F0E0008DF8100004E0AE48806A807AA8
:1055A0008DF81000AB4A12689179AA4A52681078B7
:1055B00004AB0122FCF741FB10B14FF0FF3058E77C
:1055C000B9F1000F07D0A348806AC07A40F0E0002C
:1055D0008DF8100003E0A048C07A8DF810009D4AB5
:1055E0001268D1799B4A5268107804AB0122FCF70B
:1055F00024FB10B14FF0FF303BE7B9F1000F02D0B0
:10560000C820FEF78FFF40208DF81000914A1268E5
:105610001179904A5268107804AB0122FCF70DFB17
:1056200010B14FF0FF3024E778208DF81000894A40
:1056300012685179874A5268107804AB0122FCF74E
:10564000FCFA10B14FF0FF3013E783498889FEF769
:1056500069FF00208DF810007E4A126851797D4A5A
:105660005268107804AB0122FCF7E7FA10B14FF052
:10567000FF30FEE6774A1268917A764A52681078CF
:1056800004AB0222FCF733FA10B14FF0FF30F0E622
:105690009DF811009DF8101040EA012B0C209BFB97
:1056A000F0F0C6B20020A86068602860A06060606A
:1056B0002060824665E0674A1268D17A654A52687E
:1056C000107804AB0C22FCF712FA10B14FF0FF3047
:1056D000CFE69DF811009DF8101040EA012000B2BD
:1056E000ADF808009DF813009DF8121040EA012063
:1056F00000B2ADF80A009DF815009DF8141040EABC
:10570000012000B2ADF80C00BDF908102068084473
:105710002060BDF90A10606808446060BDF90C1093
:10572000A0680844A0609DF817009DF8161040EA94
:10573000012000B2ADF800009DF819009DF8181086
:1057400040EA012000B2ADF802009DF81B009DF870
:105750001A1040EA012000B2ADF80400BDF90010B3
:10576000286808442860BDF9021068680844686029
:10577000BDF90410A8680844A8600AF1010000F00F
:10578000FF0AB24597DB3448D0F800C02868C1173B
:10579000090441EA10410704624600233846FAF73B
:1057A000C1FC32460023CDE90201FAF7BBFC2860B8
:1057B0002948D0F800C06868C117090441EA1041BF
:1057C0000704624600233846FAF7ACFC3246002351
:1057D000CDE90201FAF7A6FC68601F48D0F800C0C6
:1057E000A868C117090441EA104107046246002372
:1057F0003846FAF797FC32460023CDE90201FAF762
:1058000091FCA8601448D0F804C02168C8170004AF
:1058100040EA11480F046246002338464146FAF731
:1058200081FC32460023CDE90201FAF77BFC2060BF
:105830000948D0F804C06068C117090441EA104162
:105840000704624600233846FAF76CFC3246002310
:1058500004E00000A80000204C750008CDE902011A
:10586000FAF760FC60601148D0F804C0A068C11766
:10587000090441EA10410704624600233846FAF75A
:1058800051FC32460023CDE90201FAF74BFCA0603F
:10589000A068002804DDA068A0F58030A06003E0C7
:1058A000A06800F58030A0600020E2E54C7500089B
:1058B0002DE9FC5F0746884600263F49496808787D
:1058C00001AB03220D21FCF712F910B10720BDE84E
:1058D000FC9F9DF8040000F01F008DF804009DF867
:1058E000050000F01F008DF805009DF8060000F08F
:1058F0001F008DF80600002459E057F8240058F8DE
:105900002410A0EB010BBBF1000F01DB594601E0B5
:10591000CBF100010846FAF7BEFE4FF08F41009030
:10592000FAF7F3FC824601A8005D78B323490868C2
:10593000FAF7BAFE834659462148FAF7E6FC814653
:1059400004E020494846FAF7AEFC814601A8005D14
:10595000401EC0B201A908550028F2D14946504660
:10596000FAF7D3FC83464FF07E51FAF796FC0546D2
:1059700000BF25F000408346104881695846FAF779
:105980006DFF13D20120A04006430FE0FFE70B4854
:1059900001695046FAF758FF05D308484169504657
:1059A000FAF75CFF02D20120A0400643641C032CDE
:1059B000A3DB30468BE70000A80000204C750008F0
:1059C00000B04C4554E3853F0EB540F2CF2140F284
:1059D000E730FDF723F901210920FCF70BFE102029
:1059E0008DF803000002ADF8000003208DF80200DE
:1059F00069461248FBF72AFD04208DF80300C00217
:105A0000ADF8000003208DF8020069460B48FBF753
:105A10001DFD0D210120FBF7F9FC4FF40050019012
:105A200001208DF80A0000208DF8080010208DF864
:105A3000090001A8FBF706FC0EBD0000000C0140A8
:105A400010B507480068401C054908600846006812
:105A50000A2804DD00F006F800200149086010BDA6
:105A6000A400002010B50120044908600F20FEF7B3
:105A70007FFD00200249C1F8B00110BDB081214274
:105A80000080214210B50446204600F00FF803467E
:105A9000E01C00F00BF843EAC00083B2A01D00F048
:105AA00005F843EA801083B2184610BD014691F90B
:105AB0000020002A01DD00201EE091F90020002ACC
:105AC00001DA042018E091F90120002A01DD01200B
:105AD00012E091F90120002A01DA05200CE091F989
